{
  "_format": "hh-sol-artifact-1",
  "contractName": "MyCarContract",
  "sourceName": "contracts/myCarContract.sol",
  "abi": [
    {
      "inputs": [
        {
          "internalType": "uint256",
          "name": "",
          "type": "uint256"
        }
      ],
      "name": "informationMap",
      "outputs": [
        {
          "internalType": "string",
          "name": "name",
          "type": "string"
        },
        {
          "internalType": "uint32",
          "name": "modal",
          "type": "uint32"
        },
        {
          "internalType": "uint64",
          "name": "price",
          "type": "uint64"
        },
        {
          "internalType": "bool",
          "name": "isAvailableForSell",
          "type": "bool"
        },
        {
          "internalType": "address",
          "name": "owner",
          "type": "address"
        }
      ],
      "stateMutability": "view",
      "type": "function"
    },
    {
      "inputs": [
        {
          "internalType": "uint256",
          "name": "number",
          "type": "uint256"
        }
      ],
      "name": "retrieveInformation",
      "outputs": [
        {
          "internalType": "string",
          "name": "",
          "type": "string"
        },
        {
          "internalType": "uint32",
          "name": "",
          "type": "uint32"
        },
        {
          "internalType": "uint64",
          "name": "",
          "type": "uint64"
        },
        {
          "internalType": "bool",
          "name": "",
          "type": "bool"
        },
        {
          "internalType": "address",
          "name": "",
          "type": "address"
        }
      ],
      "stateMutability": "view",
      "type": "function"
    },
    {
      "inputs": [
        {
          "internalType": "uint256",
          "name": "number",
          "type": "uint256"
        },
        {
          "internalType": "string",
          "name": "name",
          "type": "string"
        },
        {
          "internalType": "uint32",
          "name": "modal",
          "type": "uint32"
        },
        {
          "internalType": "uint64",
          "name": "price",
          "type": "uint64"
        },
        {
          "internalType": "bool",
          "name": "isAvailableForSell",
          "type": "bool"
        }
      ],
      "name": "storeInformation",
      "outputs": [],
      "stateMutability": "nonpayable",
      "type": "function"
    },
    {
      "inputs": [
        {
          "internalType": "uint256",
          "name": "number",
          "type": "uint256"
        },
        {
          "internalType": "address",
          "name": "newOwner",
          "type": "address"
        }
      ],
      "name": "transferOwner",
      "outputs": [],
      "stateMutability": "nonpayable",
      "type": "function"
    }
  ],
  "bytecode": "0x608060405234801561001057600080fd5b5061094d806100206000396000f3fe608060405234801561001057600080fd5b506004361061004c5760003560e01c80631ebe85ba146100515780638035023c1461009f5780638ca89d8e1461018a578063e23499341461027f575b600080fd5b61009d6004803603604081101561006757600080fd5b8101908080359060200190929190803573ffffffffffffffffffffffffffffffffffffffff16906020019092919050505061036a565b005b6100cb600480360360208110156100b557600080fd5b810190808035906020019092919050505061047b565b60405180806020018663ffffffff1681526020018567ffffffffffffffff16815260200184151581526020018373ffffffffffffffffffffffffffffffffffffffff168152602001828103825287818151815260200191508051906020019080838360005b8381101561014b578082015181840152602081019050610130565b50505050905090810190601f1680156101785780820380516001836020036101000a031916815260200191505b50965050505050505060405180910390f35b61027d600480360360a08110156101a057600080fd5b8101908080359060200190929190803590602001906401000000008111156101c757600080fd5b8201836020820111156101d957600080fd5b803590602001918460018302840111640100000000831117156101fb57600080fd5b91908080601f016020809104026020016040519081016040528093929190818152602001838380828437600081840152601f19601f820116905080830192505050505050509192919290803563ffffffff169060200190929190803567ffffffffffffffff16906020019092919080351515906020019092919050505061059a565b005b6102ab6004803603602081101561029557600080fd5b81019080803590602001909291905050506106df565b60405180806020018663ffffffff1681526020018567ffffffffffffffff16815260200184151581526020018373ffffffffffffffffffffffffffffffffffffffff168152602001828103825287818151815260200191508051906020019080838360005b8381101561032b578082015181840152602081019050610310565b50505050905090810190601f1680156103585780820380516001836020036101000a031916815260200191505b50965050505050505060405180910390f35b60008083815260200190815260200160002060020160009054906101000a900473ffffffffffffffffffffffffffffffffffffffff1673ffffffffffffffffffffffffffffffffffffffff163373ffffffffffffffffffffffffffffffffffffffff1614610423576040517f08c379a00000000000000000000000000000000000000000000000000000000081526004018080602001828103825260268152602001806108f26026913960400191505060405180910390fd5b8060008084815260200190815260200160002060020160006101000a81548173ffffffffffffffffffffffffffffffffffffffff021916908373ffffffffffffffffffffffffffffffffffffffff1602179055505050565b6000602052806000526040600020600091509050806000018054600181600116156101000203166002900480601f0160208091040260200160405190810160405280929190818152602001828054600181600116156101000203166002900480156105275780601f106104fc57610100808354040283529160200191610527565b820191906000526020600020905b81548152906001019060200180831161050a57829003601f168201915b5050505050908060010160009054906101000a900463ffffffff16908060010160049054906101000a900467ffffffffffffffff169080600101600c9054906101000a900460ff16908060020160009054906101000a900473ffffffffffffffffffffffffffffffffffffffff16905085565b6040518060a001604052808581526020018463ffffffff1681526020018367ffffffffffffffff16815260200182151581526020013373ffffffffffffffffffffffffffffffffffffffff168152506000808781526020019081526020016000206000820151816000019080519060200190610617929190610854565b5060208201518160010160006101000a81548163ffffffff021916908363ffffffff16021790555060408201518160010160046101000a81548167ffffffffffffffff021916908367ffffffffffffffff160217905550606082015181600101600c6101000a81548160ff02191690831515021790555060808201518160020160006101000a81548173ffffffffffffffffffffffffffffffffffffffff021916908373ffffffffffffffffffffffffffffffffffffffff1602179055509050505050505050565b606060008060008060008087815260200190815260200160002060000160008088815260200190815260200160002060010160009054906101000a900463ffffffff1660008089815260200190815260200160002060010160049054906101000a900467ffffffffffffffff166000808a8152602001908152602001600020600101600c9054906101000a900460ff166000808b815260200190815260200160002060020160009054906101000a900473ffffffffffffffffffffffffffffffffffffffff16848054600181600116156101000203166002900480601f01602080910402602001604051908101604052809291908181526020018280546001816001161561010002031660029004801561083a5780601f1061080f5761010080835404028352916020019161083a565b820191906000526020600020905b81548152906001019060200180831161081d57829003601f168201915b505050505094509450945094509450945091939590929450565b828054600181600116156101000203166002900490600052602060002090601f016020900481019282601f1061089557805160ff19168380011785556108c3565b828001600101855582156108c3579182015b828111156108c25782518255916020019190600101906108a7565b5b5090506108d091906108d4565b5090565b5b808211156108ed5760008160009055506001016108d5565b509056fe4f6e6c7920636172206f776e657220697320616c6c6f77656420746f207472616e7365666572a26469706673582212203cdf082174a126a81d3525126d8c084b0f28dad990063517ea29d3cf2e68a8cb64736f6c63430007030033",
  "linkReferences": {},
  "deployedLinkReferences": {}
}